{
  "_format": "hh-sol-artifact-1",
  "contractName": "NFT",
  "sourceName": "src/backend/contracts/NFT.sol",
  "abi": [
    {
      "inputs": [],
      "stateMutability": "nonpayable",
      "type": "constructor"
    },
    {
      "anonymous": false,
      "inputs": [
        {
          "indexed": true,
          "internalType": "address",
          "name": "owner",
          "type": "address"
        },
        {
          "indexed": true,
          "internalType": "address",
          "name": "approved",
          "type": "address"
        },
        {
          "indexed": true,
          "internalType": "uint256",
          "name": "tokenId",
          "type": "uint256"
        }
      ],
      "name": "Approval",
      "type": "event"
    },
    {
      "anonymous": false,
      "inputs": [
        {
          "indexed": true,
          "internalType": "address",
          "name": "owner",
          "type": "address"
        },
        {
          "indexed": true,
          "internalType": "address",
          "name": "operator",
          "type": "address"
        },
        {
          "indexed": false,
          "internalType": "bool",
          "name": "approved",
          "type": "bool"
        }
      ],
      "name": "ApprovalForAll",
      "type": "event"
    },
    {
      "anonymous": false,
      "inputs": [
        {
          "indexed": true,
          "internalType": "address",
          "name": "from",
          "type": "address"
        },
        {
          "indexed": true,
          "internalType": "address",
          "name": "to",
          "type": "address"
        },
        {
          "indexed": true,
          "internalType": "uint256",
          "name": "tokenId",
          "type": "uint256"
        }
      ],
      "name": "Transfer",
      "type": "event"
    },
    {
      "inputs": [
        {
          "internalType": "address",
          "name": "to",
          "type": "address"
        },
        {
          "internalType": "uint256",
          "name": "tokenId",
          "type": "uint256"
        }
      ],
      "name": "approve",
      "outputs": [],
      "stateMutability": "nonpayable",
      "type": "function"
    },
    {
      "inputs": [
        {
          "internalType": "address",
          "name": "owner",
          "type": "address"
        }
      ],
      "name": "balanceOf",
      "outputs": [
        {
          "internalType": "uint256",
          "name": "",
          "type": "uint256"
        }
      ],
      "stateMutability": "view",
      "type": "function"
    },
    {
      "inputs": [
        {
          "internalType": "uint256",
          "name": "tokenId",
          "type": "uint256"
        }
      ],
      "name": "getApproved",
      "outputs": [
        {
          "internalType": "address",
          "name": "",
          "type": "address"
        }
      ],
      "stateMutability": "view",
      "type": "function"
    },
    {
      "inputs": [
        {
          "internalType": "address",
          "name": "owner",
          "type": "address"
        },
        {
          "internalType": "address",
          "name": "operator",
          "type": "address"
        }
      ],
      "name": "isApprovedForAll",
      "outputs": [
        {
          "internalType": "bool",
          "name": "",
          "type": "bool"
        }
      ],
      "stateMutability": "view",
      "type": "function"
    },
    {
      "inputs": [
        {
          "internalType": "string",
          "name": "_tokenURI",
          "type": "string"
        }
      ],
      "name": "mint",
      "outputs": [
        {
          "internalType": "uint256",
          "name": "",
          "type": "uint256"
        }
      ],
      "stateMutability": "nonpayable",
      "type": "function"
    },
    {
      "inputs": [],
      "name": "name",
      "outputs": [
        {
          "internalType": "string",
          "name": "",
          "type": "string"
        }
      ],
      "stateMutability": "view",
      "type": "function"
    },
    {
      "inputs": [
        {
          "internalType": "uint256",
          "name": "tokenId",
          "type": "uint256"
        }
      ],
      "name": "ownerOf",
      "outputs": [
        {
          "internalType": "address",
          "name": "",
          "type": "address"
        }
      ],
      "stateMutability": "view",
      "type": "function"
    },
    {
      "inputs": [
        {
          "internalType": "address",
          "name": "from",
          "type": "address"
        },
        {
          "internalType": "address",
          "name": "to",
          "type": "address"
        },
        {
          "internalType": "uint256",
          "name": "tokenId",
          "type": "uint256"
        }
      ],
      "name": "safeTransferFrom",
      "outputs": [],
      "stateMutability": "nonpayable",
      "type": "function"
    },
    {
      "inputs": [
        {
          "internalType": "address",
          "name": "from",
          "type": "address"
        },
        {
          "internalType": "address",
          "name": "to",
          "type": "address"
        },
        {
          "internalType": "uint256",
          "name": "tokenId",
          "type": "uint256"
        },
        {
          "internalType": "bytes",
          "name": "_data",
          "type": "bytes"
        }
      ],
      "name": "safeTransferFrom",
      "outputs": [],
      "stateMutability": "nonpayable",
      "type": "function"
    },
    {
      "inputs": [
        {
          "internalType": "address",
          "name": "operator",
          "type": "address"
        },
        {
          "internalType": "bool",
          "name": "approved",
          "type": "bool"
        }
      ],
      "name": "setApprovalForAll",
      "outputs": [],
      "stateMutability": "nonpayable",
      "type": "function"
    },
    {
      "inputs": [
        {
          "internalType": "bytes4",
          "name": "interfaceId",
          "type": "bytes4"
        }
      ],
      "name": "supportsInterface",
      "outputs": [
        {
          "internalType": "bool",
          "name": "",
          "type": "bool"
        }
      ],
      "stateMutability": "view",
      "type": "function"
    },
    {
      "inputs": [],
      "name": "symbol",
      "outputs": [
        {
          "internalType": "string",
          "name": "",
          "type": "string"
        }
      ],
      "stateMutability": "view",
      "type": "function"
    },
    {
      "inputs": [
        {
          "internalType": "uint256",
          "name": "tokenId",
          "type": "uint256"
        }
      ],
      "name": "tokenURI",
      "outputs": [
        {
          "internalType": "string",
          "name": "",
          "type": "string"
        }
      ],
      "stateMutability": "view",
      "type": "function"
    },
    {
      "inputs": [],
      "name": "tokensCount",
      "outputs": [
        {
          "internalType": "uint256",
          "name": "",
          "type": "uint256"
        }
      ],
      "stateMutability": "view",
      "type": "function"
    },
    {
      "inputs": [
        {
          "internalType": "address",
          "name": "from",
          "type": "address"
        },
        {
          "internalType": "address",
          "name": "to",
          "type": "address"
        },
        {
          "internalType": "uint256",
          "name": "tokenId",
          "type": "uint256"
        }
      ],
      "name": "transferFrom",
      "outputs": [],
      "stateMutability": "nonpayable",
      "type": "function"
    }
  ],
  "bytecode": "0x60806040523480156200001157600080fd5b506040518060400160405280600981526020017f4f6d6e696b204e465400000000000000000000000000000000000000000000008152506040518060400160405280600581526020017f4f4d4e494b000000000000000000000000000000000000000000000000000000815250816000908051906020019062000096929190620000b8565b508060019080519060200190620000af929190620000b8565b505050620001cd565b828054620000c69062000168565b90600052602060002090601f016020900481019282620000ea576000855562000136565b82601f106200010557805160ff191683800117855562000136565b8280016001018555821562000136579182015b828111156200013557825182559160200191906001019062000118565b5b50905062000145919062000149565b5090565b5b80821115620001645760008160009055506001016200014a565b5090565b600060028204905060018216806200018157607f821691505b602082108114156200019857620001976200019e565b5b50919050565b7f4e487b7100000000000000000000000000000000000000000000000000000000600052602260045260246000fd5b612c4680620001dd6000396000f3fe608060405234801561001057600080fd5b50600436106100f55760003560e01c806370a0823111610097578063b88d4fde11610066578063b88d4fde14610284578063c87b56dd146102a0578063d85d3d27146102d0578063e985e9c514610300576100f5565b806370a08231146101fc57806395d89b411461022c578063a22cb4651461024a578063a64ed8ba14610266576100f5565b8063095ea7b3116100d3578063095ea7b31461017857806323b872dd1461019457806342842e0e146101b05780636352211e146101cc576100f5565b806301ffc9a7146100fa57806306fdde031461012a578063081812fc14610148575b600080fd5b610114600480360381019061010f9190611c5b565b610330565b60405161012191906120b6565b60405180910390f35b610132610412565b60405161013f91906120d1565b60405180910390f35b610162600480360381019061015d9190611cfe565b6104a4565b60405161016f919061204f565b60405180910390f35b610192600480360381019061018d9190611c1b565b610529565b005b6101ae60048036038101906101a99190611b05565b610641565b005b6101ca60048036038101906101c59190611b05565b6106a1565b005b6101e660048036038101906101e19190611cfe565b6106c1565b6040516101f3919061204f565b60405180910390f35b61021660048036038101906102119190611a98565b610773565b60405161022391906122f3565b60405180910390f35b61023461082b565b60405161024191906120d1565b60405180910390f35b610264600480360381019061025f9190611bdb565b6108bd565b005b61026e6108d3565b60405161027b91906122f3565b60405180910390f35b61029e60048036038101906102999190611b58565b6108d9565b005b6102ba60048036038101906102b59190611cfe565b61093b565b6040516102c791906120d1565b60405180910390f35b6102ea60048036038101906102e59190611cb5565b610a8d565b6040516102f791906122f3565b60405180910390f35b61031a60048036038101906103159190611ac5565b610ac9565b60405161032791906120b6565b60405180910390f35b60007f80ac58cd000000000000000000000000000000000000000000000000000000007bffffffffffffffffffffffffffffffffffffffffffffffffffffffff1916827bffffffffffffffffffffffffffffffffffffffffffffffffffffffff191614806103fb57507f5b5e139f000000000000000000000000000000000000000000000000000000007bffffffffffffffffffffffffffffffffffffffffffffffffffffffff1916827bffffffffffffffffffffffffffffffffffffffffffffffffffffffff1916145b8061040b575061040a82610b5d565b5b9050919050565b60606000805461042190612549565b80601f016020809104026020016040519081016040528092919081815260200182805461044d90612549565b801561049a5780601f1061046f5761010080835404028352916020019161049a565b820191906000526020600020905b81548152906001019060200180831161047d57829003601f168201915b5050505050905090565b60006104af82610bc7565b6104ee576040517f08c379a00000000000000000000000000000000000000000000000000000000081526004016104e590612273565b60405180910390fd5b6004600083815260200190815260200160002060009054906101000a900473ffffffffffffffffffffffffffffffffffffffff169050919050565b6000610534826106c1565b90508073ffffffffffffffffffffffffffffffffffffffff168373ffffffffffffffffffffffffffffffffffffffff1614156105a5576040517f08c379a000000000000000000000000000000000000000000000000000000000815260040161059c906122b3565b60405180910390fd5b8073ffffffffffffffffffffffffffffffffffffffff166105c4610c33565b73ffffffffffffffffffffffffffffffffffffffff1614806105f357506105f2816105ed610c33565b610ac9565b5b610632576040517f08c379a0000000000000000000000000000000000000000000000000000000008152600401610629906121b3565b60405180910390fd5b61063c8383610c3b565b505050565b61065261064c610c33565b82610cf4565b610691576040517f08c379a0000000000000000000000000000000000000000000000000000000008152600401610688906122d3565b60405180910390fd5b61069c838383610dd2565b505050565b6106bc838383604051806020016040528060008152506108d9565b505050565b6000806002600084815260200190815260200160002060009054906101000a900473ffffffffffffffffffffffffffffffffffffffff169050600073ffffffffffffffffffffffffffffffffffffffff168173ffffffffffffffffffffffffffffffffffffffff16141561076a576040517f08c379a0000000000000000000000000000000000000000000000000000000008152600401610761906121f3565b60405180910390fd5b80915050919050565b60008073ffffffffffffffffffffffffffffffffffffffff168273ffffffffffffffffffffffffffffffffffffffff1614156107e4576040517f08c379a00000000000000000000000000000000000000000000000000000000081526004016107db906121d3565b60405180910390fd5b600360008373ffffffffffffffffffffffffffffffffffffffff1673ffffffffffffffffffffffffffffffffffffffff168152602001908152602001600020549050919050565b60606001805461083a90612549565b80601f016020809104026020016040519081016040528092919081815260200182805461086690612549565b80156108b35780601f10610888576101008083540402835291602001916108b3565b820191906000526020600020905b81548152906001019060200180831161089657829003601f168201915b5050505050905090565b6108cf6108c8610c33565b8383611039565b5050565b60075481565b6108ea6108e4610c33565b83610cf4565b610929576040517f08c379a0000000000000000000000000000000000000000000000000000000008152600401610920906122d3565b60405180910390fd5b610935848484846111a6565b50505050565b606061094682610bc7565b610985576040517f08c379a000000000000000000000000000000000000000000000000000000000815260040161097c90612253565b60405180910390fd5b60006006600084815260200190815260200160002080546109a590612549565b80601f01602080910402602001604051908101604052809291908181526020018280546109d190612549565b8015610a1e5780601f106109f357610100808354040283529160200191610a1e565b820191906000526020600020905b815481529060010190602001808311610a0157829003601f168201915b505050505090506000610a2f611202565b9050600081511415610a45578192505050610a88565b600082511115610a7a578082604051602001610a6292919061202b565b60405160208183030381529060405292505050610a88565b610a8384611219565b925050505b919050565b600060076000815480929190610aa2906125ac565b9190505550610ab3336007546112c0565b610abf600754836112de565b6007549050919050565b6000600560008473ffffffffffffffffffffffffffffffffffffffff1673ffffffffffffffffffffffffffffffffffffffff16815260200190815260200160002060008373ffffffffffffffffffffffffffffffffffffffff1673ffffffffffffffffffffffffffffffffffffffff16815260200190815260200160002060009054906101000a900460ff16905092915050565b60007f01ffc9a7000000000000000000000000000000000000000000000000000000007bffffffffffffffffffffffffffffffffffffffffffffffffffffffff1916827bffffffffffffffffffffffffffffffffffffffffffffffffffffffff1916149050919050565b60008073ffffffffffffffffffffffffffffffffffffffff166002600084815260200190815260200160002060009054906101000a900473ffffffffffffffffffffffffffffffffffffffff1673ffffffffffffffffffffffffffffffffffffffff1614159050919050565b600033905090565b816004600083815260200190815260200160002060006101000a81548173ffffffffffffffffffffffffffffffffffffffff021916908373ffffffffffffffffffffffffffffffffffffffff160217905550808273ffffffffffffffffffffffffffffffffffffffff16610cae836106c1565b73ffffffffffffffffffffffffffffffffffffffff167f8c5be1e5ebec7d5bd14f71427d1e84f3dd0314c0f7b2291e5b200ac8c7c3b92560405160405180910390a45050565b6000610cff82610bc7565b610d3e576040517f08c379a0000000000000000000000000000000000000000000000000000000008152600401610d3590612193565b60405180910390fd5b6000610d49836106c1565b90508073ffffffffffffffffffffffffffffffffffffffff168473ffffffffffffffffffffffffffffffffffffffff161480610db857508373ffffffffffffffffffffffffffffffffffffffff16610da0846104a4565b73ffffffffffffffffffffffffffffffffffffffff16145b80610dc95750610dc88185610ac9565b5b91505092915050565b8273ffffffffffffffffffffffffffffffffffffffff16610df2826106c1565b73ffffffffffffffffffffffffffffffffffffffff1614610e48576040517f08c379a0000000000000000000000000000000000000000000000000000000008152600401610e3f90612113565b60405180910390fd5b600073ffffffffffffffffffffffffffffffffffffffff168273ffffffffffffffffffffffffffffffffffffffff161415610eb8576040517f08c379a0000000000000000000000000000000000000000000000000000000008152600401610eaf90612153565b60405180910390fd5b610ec3838383611352565b610ece600082610c3b565b6001600360008573ffffffffffffffffffffffffffffffffffffffff1673ffffffffffffffffffffffffffffffffffffffff1681526020019081526020016000206000828254610f1e919061245f565b925050819055506001600360008473ffffffffffffffffffffffffffffffffffffffff1673ffffffffffffffffffffffffffffffffffffffff1681526020019081526020016000206000828254610f7591906123d8565b92505081905550816002600083815260200190815260200160002060006101000a81548173ffffffffffffffffffffffffffffffffffffffff021916908373ffffffffffffffffffffffffffffffffffffffff160217905550808273ffffffffffffffffffffffffffffffffffffffff168473ffffffffffffffffffffffffffffffffffffffff167fddf252ad1be2c89b69c2b068fc378daa952ba7f163c4a11628f55a4df523b3ef60405160405180910390a4611034838383611357565b505050565b8173ffffffffffffffffffffffffffffffffffffffff168373ffffffffffffffffffffffffffffffffffffffff1614156110a8576040517f08c379a000000000000000000000000000000000000000000000000000000000815260040161109f90612173565b60405180910390fd5b80600560008573ffffffffffffffffffffffffffffffffffffffff1673ffffffffffffffffffffffffffffffffffffffff16815260200190815260200160002060008473ffffffffffffffffffffffffffffffffffffffff1673ffffffffffffffffffffffffffffffffffffffff16815260200190815260200160002060006101000a81548160ff0219169083151502179055508173ffffffffffffffffffffffffffffffffffffffff168373ffffffffffffffffffffffffffffffffffffffff167f17307eab39ab6107e8899845ad3d59bd9653f200f220920489ca2b5937696c318360405161119991906120b6565b60405180910390a3505050565b6111b1848484610dd2565b6111bd8484848461135c565b6111fc576040517f08c379a00000000000000000000000000000000000000000000000000000000081526004016111f3906120f3565b60405180910390fd5b50505050565b606060405180602001604052806000815250905090565b606061122482610bc7565b611263576040517f08c379a000000000000000000000000000000000000000000000000000000000815260040161125a90612293565b60405180910390fd5b600061126d611202565b9050600081511161128d57604051806020016040528060008152506112b8565b80611297846114f3565b6040516020016112a892919061202b565b6040516020818303038152906040525b915050919050565b6112da828260405180602001604052806000815250611654565b5050565b6112e782610bc7565b611326576040517f08c379a000000000000000000000000000000000000000000000000000000000815260040161131d90612213565b60405180910390fd5b8060066000848152602001908152602001600020908051906020019061134d9291906118ac565b505050565b505050565b505050565b600061137d8473ffffffffffffffffffffffffffffffffffffffff166116af565b156114e6578373ffffffffffffffffffffffffffffffffffffffff1663150b7a026113a6610c33565b8786866040518563ffffffff1660e01b81526004016113c8949392919061206a565b602060405180830381600087803b1580156113e257600080fd5b505af192505050801561141357506040513d601f19601f820116820180604052508101906114109190611c88565b60015b611496573d8060008114611443576040519150601f19603f3d011682016040523d82523d6000602084013e611448565b606091505b5060008151141561148e576040517f08c379a0000000000000000000000000000000000000000000000000000000008152600401611485906120f3565b60405180910390fd5b805181602001fd5b63150b7a0260e01b7bffffffffffffffffffffffffffffffffffffffffffffffffffffffff1916817bffffffffffffffffffffffffffffffffffffffffffffffffffffffff1916149150506114eb565b600190505b949350505050565b6060600082141561153b576040518060400160405280600181526020017f3000000000000000000000000000000000000000000000000000000000000000815250905061164f565b600082905060005b6000821461156d578080611556906125ac565b915050600a82611566919061242e565b9150611543565b60008167ffffffffffffffff811115611589576115886126e2565b5b6040519080825280601f01601f1916602001820160405280156115bb5781602001600182028036833780820191505090505b5090505b60008514611648576001826115d4919061245f565b9150600a856115e391906125f5565b60306115ef91906123d8565b60f81b818381518110611605576116046126b3565b5b60200101907effffffffffffffffffffffffffffffffffffffffffffffffffffffffffffff1916908160001a905350600a85611641919061242e565b94506115bf565b8093505050505b919050565b61165e83836116d2565b61166b600084848461135c565b6116aa576040517f08c379a00000000000000000000000000000000000000000000000000000000081526004016116a1906120f3565b60405180910390fd5b505050565b6000808273ffffffffffffffffffffffffffffffffffffffff163b119050919050565b600073ffffffffffffffffffffffffffffffffffffffff168273ffffffffffffffffffffffffffffffffffffffff161415611742576040517f08c379a000000000000000000000000000000000000000000000000000000000815260040161173990612233565b60405180910390fd5b61174b81610bc7565b1561178b576040517f08c379a000000000000000000000000000000000000000000000000000000000815260040161178290612133565b60405180910390fd5b61179760008383611352565b6001600360008473ffffffffffffffffffffffffffffffffffffffff1673ffffffffffffffffffffffffffffffffffffffff16815260200190815260200160002060008282546117e791906123d8565b92505081905550816002600083815260200190815260200160002060006101000a81548173ffffffffffffffffffffffffffffffffffffffff021916908373ffffffffffffffffffffffffffffffffffffffff160217905550808273ffffffffffffffffffffffffffffffffffffffff16600073ffffffffffffffffffffffffffffffffffffffff167fddf252ad1be2c89b69c2b068fc378daa952ba7f163c4a11628f55a4df523b3ef60405160405180910390a46118a860008383611357565b5050565b8280546118b890612549565b90600052602060002090601f0160209004810192826118da5760008555611921565b82601f106118f357805160ff1916838001178555611921565b82800160010185558215611921579182015b82811115611920578251825591602001919060010190611905565b5b50905061192e9190611932565b5090565b5b8082111561194b576000816000905550600101611933565b5090565b600061196261195d84612333565b61230e565b90508281526020810184848401111561197e5761197d612716565b5b611989848285612507565b509392505050565b60006119a461199f84612364565b61230e565b9050828152602081018484840111156119c0576119bf612716565b5b6119cb848285612507565b509392505050565b6000813590506119e281612bb4565b92915050565b6000813590506119f781612bcb565b92915050565b600081359050611a0c81612be2565b92915050565b600081519050611a2181612be2565b92915050565b600082601f830112611a3c57611a3b612711565b5b8135611a4c84826020860161194f565b91505092915050565b600082601f830112611a6a57611a69612711565b5b8135611a7a848260208601611991565b91505092915050565b600081359050611a9281612bf9565b92915050565b600060208284031215611aae57611aad612720565b5b6000611abc848285016119d3565b91505092915050565b60008060408385031215611adc57611adb612720565b5b6000611aea858286016119d3565b9250506020611afb858286016119d3565b9150509250929050565b600080600060608486031215611b1e57611b1d612720565b5b6000611b2c868287016119d3565b9350506020611b3d868287016119d3565b9250506040611b4e86828701611a83565b9150509250925092565b60008060008060808587031215611b7257611b71612720565b5b6000611b80878288016119d3565b9450506020611b91878288016119d3565b9350506040611ba287828801611a83565b925050606085013567ffffffffffffffff811115611bc357611bc261271b565b5b611bcf87828801611a27565b91505092959194509250565b60008060408385031215611bf257611bf1612720565b5b6000611c00858286016119d3565b9250506020611c11858286016119e8565b9150509250929050565b60008060408385031215611c3257611c31612720565b5b6000611c40858286016119d3565b9250506020611c5185828601611a83565b9150509250929050565b600060208284031215611c7157611c70612720565b5b6000611c7f848285016119fd565b91505092915050565b600060208284031215611c9e57611c9d612720565b5b6000611cac84828501611a12565b91505092915050565b600060208284031215611ccb57611cca612720565b5b600082013567ffffffffffffffff811115611ce957611ce861271b565b5b611cf584828501611a55565b91505092915050565b600060208284031215611d1457611d13612720565b5b6000611d2284828501611a83565b91505092915050565b611d3481612493565b82525050565b611d43816124a5565b82525050565b6000611d5482612395565b611d5e81856123ab565b9350611d6e818560208601612516565b611d7781612725565b840191505092915050565b6000611d8d826123a0565b611d9781856123bc565b9350611da7818560208601612516565b611db081612725565b840191505092915050565b6000611dc6826123a0565b611dd081856123cd565b9350611de0818560208601612516565b80840191505092915050565b6000611df96032836123bc565b9150611e0482612736565b604082019050919050565b6000611e1c6025836123bc565b9150611e2782612785565b604082019050919050565b6000611e3f601c836123bc565b9150611e4a826127d4565b602082019050919050565b6000611e626024836123bc565b9150611e6d826127fd565b604082019050919050565b6000611e856019836123bc565b9150611e908261284c565b602082019050919050565b6000611ea8602c836123bc565b9150611eb382612875565b604082019050919050565b6000611ecb6038836123bc565b9150611ed6826128c4565b604082019050919050565b6000611eee602a836123bc565b9150611ef982612913565b604082019050919050565b6000611f116029836123bc565b9150611f1c82612962565b604082019050919050565b6000611f34602e836123bc565b9150611f3f826129b1565b604082019050919050565b6000611f576020836123bc565b9150611f6282612a00565b602082019050919050565b6000611f7a6031836123bc565b9150611f8582612a29565b604082019050919050565b6000611f9d602c836123bc565b9150611fa882612a78565b604082019050919050565b6000611fc0602f836123bc565b9150611fcb82612ac7565b604082019050919050565b6000611fe36021836123bc565b9150611fee82612b16565b604082019050919050565b60006120066031836123bc565b915061201182612b65565b604082019050919050565b612025816124fd565b82525050565b60006120378285611dbb565b91506120438284611dbb565b91508190509392505050565b60006020820190506120646000830184611d2b565b92915050565b600060808201905061207f6000830187611d2b565b61208c6020830186611d2b565b612099604083018561201c565b81810360608301526120ab8184611d49565b905095945050505050565b60006020820190506120cb6000830184611d3a565b92915050565b600060208201905081810360008301526120eb8184611d82565b905092915050565b6000602082019050818103600083015261210c81611dec565b9050919050565b6000602082019050818103600083015261212c81611e0f565b9050919050565b6000602082019050818103600083015261214c81611e32565b9050919050565b6000602082019050818103600083015261216c81611e55565b9050919050565b6000602082019050818103600083015261218c81611e78565b9050919050565b600060208201905081810360008301526121ac81611e9b565b9050919050565b600060208201905081810360008301526121cc81611ebe565b9050919050565b600060208201905081810360008301526121ec81611ee1565b9050919050565b6000602082019050818103600083015261220c81611f04565b9050919050565b6000602082019050818103600083015261222c81611f27565b9050919050565b6000602082019050818103600083015261224c81611f4a565b9050919050565b6000602082019050818103600083015261226c81611f6d565b9050919050565b6000602082019050818103600083015261228c81611f90565b9050919050565b600060208201905081810360008301526122ac81611fb3565b9050919050565b600060208201905081810360008301526122cc81611fd6565b9050919050565b600060208201905081810360008301526122ec81611ff9565b9050919050565b6000602082019050612308600083018461201c565b92915050565b6000612318612329565b9050612324828261257b565b919050565b6000604051905090565b600067ffffffffffffffff82111561234e5761234d6126e2565b5b61235782612725565b9050602081019050919050565b600067ffffffffffffffff82111561237f5761237e6126e2565b5b61238882612725565b9050602081019050919050565b600081519050919050565b600081519050919050565b600082825260208201905092915050565b600082825260208201905092915050565b600081905092915050565b60006123e3826124fd565b91506123ee836124fd565b9250827fffffffffffffffffffffffffffffffffffffffffffffffffffffffffffffffff0382111561242357612422612626565b5b828201905092915050565b6000612439826124fd565b9150612444836124fd565b92508261245457612453612655565b5b828204905092915050565b600061246a826124fd565b9150612475836124fd565b92508282101561248857612487612626565b5b828203905092915050565b600061249e826124dd565b9050919050565b60008115159050919050565b60007fffffffff0000000000000000000000000000000000000000000000000000000082169050919050565b600073ffffffffffffffffffffffffffffffffffffffff82169050919050565b6000819050919050565b82818337600083830152505050565b60005b83811015612534578082015181840152602081019050612519565b83811115612543576000848401525b50505050565b6000600282049050600182168061256157607f821691505b6020821081141561257557612574612684565b5b50919050565b61258482612725565b810181811067ffffffffffffffff821117156125a3576125a26126e2565b5b80604052505050565b60006125b7826124fd565b91507fffffffffffffffffffffffffffffffffffffffffffffffffffffffffffffffff8214156125ea576125e9612626565b5b600182019050919050565b6000612600826124fd565b915061260b836124fd565b92508261261b5761261a612655565b5b828206905092915050565b7f4e487b7100000000000000000000000000000000000000000000000000000000600052601160045260246000fd5b7f4e487b7100000000000000000000000000000000000000000000000000000000600052601260045260246000fd5b7f4e487b7100000000000000000000000000000000000000000000000000000000600052602260045260246000fd5b7f4e487b7100000000000000000000000000000000000000000000000000000000600052603260045260246000fd5b7f4e487b7100000000000000000000000000000000000000000000000000000000600052604160045260246000fd5b600080fd5b600080fd5b600080fd5b600080fd5b6000601f19601f8301169050919050565b7f4552433732313a207472616e7366657220746f206e6f6e20455243373231526560008201527f63656976657220696d706c656d656e7465720000000000000000000000000000602082015250565b7f4552433732313a207472616e736665722066726f6d20696e636f72726563742060008201527f6f776e6572000000000000000000000000000000000000000000000000000000602082015250565b7f4552433732313a20746f6b656e20616c7265616479206d696e74656400000000600082015250565b7f4552433732313a207472616e7366657220746f20746865207a65726f2061646460008201527f7265737300000000000000000000000000000000000000000000000000000000602082015250565b7f4552433732313a20617070726f766520746f2063616c6c657200000000000000600082015250565b7f4552433732313a206f70657261746f7220717565727920666f72206e6f6e657860008201527f697374656e7420746f6b656e0000000000000000000000000000000000000000602082015250565b7f4552433732313a20617070726f76652063616c6c6572206973206e6f74206f7760008201527f6e6572206e6f7220617070726f76656420666f7220616c6c0000000000000000602082015250565b7f4552433732313a2062616c616e636520717565727920666f7220746865207a6560008201527f726f206164647265737300000000000000000000000000000000000000000000602082015250565b7f4552433732313a206f776e657220717565727920666f72206e6f6e657869737460008201527f656e7420746f6b656e0000000000000000000000000000000000000000000000602082015250565b7f45524337323155524953746f726167653a2055524920736574206f66206e6f6e60008201527f6578697374656e7420746f6b656e000000000000000000000000000000000000602082015250565b7f4552433732313a206d696e7420746f20746865207a65726f2061646472657373600082015250565b7f45524337323155524953746f726167653a2055524920717565727920666f722060008201527f6e6f6e6578697374656e7420746f6b656e000000000000000000000000000000602082015250565b7f4552433732313a20617070726f76656420717565727920666f72206e6f6e657860008201527f697374656e7420746f6b656e0000000000000000000000000000000000000000602082015250565b7f4552433732314d657461646174613a2055524920717565727920666f72206e6f60008201527f6e6578697374656e7420746f6b656e0000000000000000000000000000000000602082015250565b7f4552433732313a20617070726f76616c20746f2063757272656e74206f776e6560008201527f7200000000000000000000000000000000000000000000000000000000000000602082015250565b7f4552433732313a207472616e736665722063616c6c6572206973206e6f74206f60008201527f776e6572206e6f7220617070726f766564000000000000000000000000000000602082015250565b612bbd81612493565b8114612bc857600080fd5b50565b612bd4816124a5565b8114612bdf57600080fd5b50565b612beb816124b1565b8114612bf657600080fd5b50565b612c02816124fd565b8114612c0d57600080fd5b5056fea26469706673582212205d254a41cac5afaf49ecbcd0c3688e95f903e60695d587a3999618dd1902c76e64736f6c63430008050033",
  "linkReferences": {},
  "deployedLinkReferences": {}
}